:1000000088910020A5790300A1AB0000917903003D
:1000100091790300917903009179030091790300AC
:100020000000000000000000000000002D79030027
:100030009179030000000000D1780300917903005A
:100040004D7903004D7903004D7903004D7903008C
:100050004D7903004D7903004D7903004D7903007C
:100060004D7903004D7903004D7903004D7903006C
:100070004D7903004D7903004D7903004D7903005C
:100080004D7903004D7903004D7903004D7903004C
:100090004D7903004D7903004D7903004D7903003C
:1000A0004D7903004D7903004D7903004D7903002C
:1000B0004D7903004D7903004D7903004D7903001C
:1000C0004D7903004D7903004D7903004D7903000C
:1000D0004D7903004D7903004D7903004D790300FC
:1000E0004D7903004D7903004D7903004D790300EC
:1000F0004D7903004D7903004D7903004D790300DC
:100100004D7903004D7903004D7903004D790300CB
:100110004D7903004D7903004D7903004D790300BB
:100120004D7903004D7903004D7903004D790300AB
:100130004D7903004D7903004D7903004D7903009B
:100140004D7903004D7903004D7903004D7903008B
:040150004D790300E2
:04015400FFFFFFFFAB
:100158002DE9F84340F26C7344690569E1170135EC
:10016800E41841F10001022D8CBF00230123E41A99
:10017800C76861F100010029064607F1FF374EDA2A
:100188006FF4C7704FF4C8720023201861F10001A2
:1001980032F0BAFF244B4FF03C0E03FB0044D6E983
:1001A80000834FEAE37C99466346022D02468CBFE2
:1001B8006FF002000920B6680544C6FB0E93A9FB40
:1001C8000EC60EFB036640F26D1E9920A3080EFBB7
:1001D80004333B44642745430520B4FBF7F4023558
:1001E800B5FBF0F51B1B114C1CEB080CA2FB042003
:1001F80004FB01012B4446EBE87698180C4A41F1C0
:10020800000380180B4A63F10003A0FB020102FB04
:10021800031110EB0C0041EB0601BDE8F8834FF425
:10022800C87200232046B3E770FEFFFFB13A020010
:100238009405F5FF8051010038B5FFF789FF0546A1
:100248000C462DF01FFF002303602146284638BDC9
:1002580070B5D0E9025355EA03060446D1E90020F7
:1002680004D1024312D16FF015001EE0954283417C
:10027800F9D2D1E90202D4E9045385429341F2D27A
:100288000FC9183484E80F0001200EE004F10805B6
:100298000FC985E80F001022002104F1180035F07D
:1002A800E6FF4FF07E530020A36270BD70B50E4686
:1002B800054600213046144632F01CFF80B1AE627C
:1002C8000CB9002070BD05F1080694E80F0086E817
:1002D8000F001022002105F1180035F0C8FFF0E7E3
:1002E8006FF01500EEE72DE9F04FD0E9028B58EAE0
:1002F8000B0385B040D0D0E9065355EA03020393B7
:100308003AD0D0E90846D0E9047AA7427AEB060247
:1003180032D2D0F80090D9F8040032F0BDF8039B2F
:10032800CDE90001B5EB080063EB0B0132F0F8F8FA
:1003380002460B46DDE9000132F028F9CDE900015B
:10034800E01B66EB0A0132F0EBF802460B46DDE9EA
:10035800000132F045FA0446D9F800000D4632F0A3
:100368009BF802460B462046294632F039FA32F00D
:10037800A7FB05B0BDE8F08F0020FAE72DE9F84F9C
:10038800D0F828A0044600215046904699460A9E77
:1003980032F0B0FE002842D0D4E9027557EA0503CE
:1003A8003DD0E6B3D4E904324FF07E51B8EB0308F0
:1003B800504669EB0209D4F800B032F073FE90B9E8
:1003C8004046494632F0B4F880465046894632F0F5
:1003D80085F802460B464046494632F0D7F837F0D2
:1003E800CCF880468946DBF800100023A1FB0808FA
:1003F800DBF8042001FB098132F086FEC01945EBC9
:100408000105002D0EDBC6E900054FF07E51A06AFC
:1004180032F048FEB0FA80F04009BDE8F88F6FF07E
:100428001500FAE76FF02100F7E72DE9F84FD0F84B
:10043800288004460021404615461F460A9E32F091
:1004480059FE002842D0D4E9023053EA00023DD0D8
:10045800002E3BD02268ED1A516867EB0007A1FB1C
:100468000505002301FB0751126832F04DFE814655
:100478000F4682460D4640464FF07E5132F012FE3E
:1004880090B94846394632F053F8824640468B4682
:1004980032F024F802460B465046594632F0A0F98D
:1004A80037F06BF882460D46D4E9043213EB0A03A1
:1004B80045EB0205C6E900354FF07E51A06A32F0DF
:1004C800F1FDB0FA80F04009BDE8F88F6FF0150033
:1004D800FAE708B532F002F802460B4600200A494E
:1004E80031F09CFE06A3D3E9002332F04FF837F031
:1004F80044F8B1EBE07F18BF4FF0004008BD00BFE3
:100508000000000065CDCD410000F03F0000000074
:100518000128F8B50D4608D004282FD02DF0B2FDDB
:10052800162303604FF0FF30F8BD4FF02003EFF3C0
:10053800118283F31288BFF36F8F164BD3E90076CD
:100548009C6882F31188BFF36F8F30F039FCC30BBE
:1005580043EA4143DA1946EBD1360F49C0F30E009E
:10056800A0FB0107C30B43EA47431C440B4BC5E9F7
:1005780000269C42AC6005D80020D5E70024274619
:100588002646E2E7013246F10006641AC5E900266C
:10059800AC60F1E7D823002000CA9A3BFFC99A3B18
:1005A800012870B50D4606D02DF06CFD16230360AA
:1005B8004FF0FF3070BD30F003FC1D4A2B686E68A9
:1005C800A3FB023402FB0644AD685B1944EBE574F7
:1005D800C50B45EA4145A5FB0256C90B02FB016163
:1005E8005B1BC0F30E0064EB0101A0FB0204C20B0D
:1005F80042EA4442981A61F100010BA3D3E90023AF
:1006080032F082FD4FF02003EFF3118483F3128858
:10061800BFF36F8F074BC3E900019A6084F3118819
:10062800BFF36F8F0020C5E700CA9A3B00000000A7
:1006380000CA9A3BD823002001282DE9F8438046B8
:100648001F4605D0042803D02DF01CFD162303E017
:100658003AB92DF017FD0E2303604FF0FF30BDE8C7
:10066800F883D2E90043002BEEDBD2F80890584A11
:100678009145E9D811F00406564D73D1564AA24265
:100688004FF004029A416DDA4FF47A72013CA4FBF0
:10069800024143F1FF3302FB031140F2E733C90380
:1006A80041EA5441E403E0184FF47A724FF0000332
:1006B80041F1000132F078FD2FF0C6FF09EB050487
:1006C800B146464B03FB004426F056FD47F6FF7340
:1006D8000022C0F30E01E1FB0532C00BA0FB050CA4
:1006E800DB0B43EA42431A184CF1000C002E42D1AE
:1006F800A41849EB0C09A2427CEB090C2FD240F25A
:10070800E733E0184FF47A724FF0000349F1000123
:1007180032F04AFD4FF000080025314E2F4CC90336
:1007280041EA5041C003801941F10001864278EB4B
:10073800010341D22B46224632F036FD6FF0010309
:10074800181A4FF0FF3363EB01012FF07DFF4FF4D0
:100758007A73584350EAE0734FEAE071DFD187BB00
:1007680000207CE7A4FB054205FB032314EB0904E6
:1007780043EBE979A8E7B8F1010FBCD14FF02003AA
:10078800EFF3118683F31288BFF36F8F1548036860
:10079800D0F804E0A3FB053105FB0E1180681B1897
:1007A80041EBE071E31A69EB01011C46894686F3C7
:1007B8001188BFF36F8F9EE76FF001004FF0FF3194
:1007C800C3E700230022C7E900230023BB60C7E773
:1007D800FFC99A3B00CA9A3B08FA824B40420F0075
:1007E8003F420F00D82300201FB504460120694668
:1007F800FFF78EFEDDE90023C4E900234FF47A7287
:10080800029BB3FBF2F3A36004B010BD000000002C
:100818000F2807D80D280BD8052808BF032018BFB4
:1008280002207047132803D01A2808BF0120F6E7D2
:1008380001207047D0F8C03083B15A7BD1070DD55D
:10084800D2060DD51B7B102B14BF03230423437240
:10085800807A98428CBF0020012070470223F6E777
:100868000323F4E7704770B58EB06C4606460A4D10
:100878000D2E0FCD0FC40FCD0FC40FCD0FC495E8AB
:10088800030084E803009DBF0EAB03EB860656F811
:10089800380C02480EB070BD88CE0300BCFE0300C1
:1008A800072235F0D9BC38B5C368B3F801401B78C6
:1008B8006BB90F21204610F000FE054640B9084BE1
:1008C8001A8822B96FEA04506FEA1050188038BDB0
:1008D800012110F0CDFC2846BDE8384010F08FBC4F
:1008E800F8290020F8B506460F4611F02EF8044600
:1008F80040B18378012B24D0132111F051FA2046FE
:1009080010F07DFC3946304619F0E0FD054628BB5D
:100918003946304616F0A6FC144B1B6823B31C68F6
:1009280004B10C3C53F8043C13B13946304698479F
:10093800D4B12346E4689B68A4B10C3C002BF4D1E5
:10094800F7E70023D0F8C0501321C0F8C03011F0E9
:1009580027FA204610F053FC002DD3D0284619F072
:10096800C9FDD5E7002BE0D1F8BD00BF842E0020DB
:100978000B4601461878B5E7034610B5D3E8EF0FE4
:1009880040EA0102C3E8E42F002CF7D110BD10B5EE
:10099800084C0146052294F86F0011F04BF838B95D
:1009A80094F86F000422BDE81040034911F042B8E2
:1009B80010BD00BF50000020F0E903007FB50BAB6D
:1009C800059303930A9B082002930023CDE9003086
:1009D800184607F0AEFF07B05DF804FB7FB5014687
:1009E8000C481AF055F80C490C482EF0B7FF0028AF
:1009F8000DDA0B4B082203930A4B04900293002351
:100A08000949CDE9003218460122FFF7D7FF07B0A0
:100A18005DF804FBAC010020D8010020002A00206A
:100A2800C0CE0300C4FE03001CC7030030B5044653
:100A3800084689B002EBC303934215D1058AC06802
:100A480029460DF0EFFA194B08220393184BCDE90C
:100A58000550029300231749CDE9003218460222B7
:100A68000494FFF7ABFF17E0114611F8085BA542A5
:100A780019D1038A5178994210D9CDE904340E4B23
:100A8800082103930D4B012202930023CDE9003185
:100A980018460849FFF792FF09B030BD536809B0FE
:100AA800BDE8304018470A46C6E700BFE1CE03005C
:100AB8000BFF03001CC70300CDCE0300E5FE0300B7
:100AC800F0B5604887B019F0F9FF044600287ED0D9
:100AD800037E012B7DD0032B40F0AA80038A032BD1
:100AE8000CD84FF40073584A5849594833F0DAFF84
:100AF800404080F311884FF0030002DF042104F125
:100B08000C0035F0E4FF45880788204619F0F8FE08
:100B1800504EC7F30B0306EB4000A0F81831238AA8
:100B28009D4212D0CDE904354B4B082503934B4B1E
:100B38000122029300234A491846CDE90035FFF700
:100B48003DFF204619F0D3FF28E0204619F0D8FED3
:100B580006EB40000F21B0F8180110F0AEFC054676
:100B6800A8B9204619F0CCFE06EB4006B6F81831B5
:100B78000493394B03933B4B02930823CDE900536D
:100B88002B46012218463649FFF718FFD9E72146B8
:100B98003A0B10F08BF9284610F031FB3249D1F8A6
:100BA8005C31A3B1314801F5C4712EF0D7FE00289D
:100BB8000DDA2F4B082203932E4B04900293002347
:100BC8002749CDE9003218460122FFF7F7FE07B0A2
:100BD800F0BD038A012B0CD840F65D231A4A1B4945
:100BE8001B4833F05FFF404080F311884FF003004B
:100BF80002DF022104F10C0035F069FF0546007898
:100C0800FFF706FE80070CD440F661230E4A1A4906
:100C18000F4833F047FF404080F311884FF003003E
:100C280002DF06232146154A2878FFF7FFFE88E7EA
:100C380004930F4B08210393114B02930023CDE932
:100C480000319EE7AC01002031FF030065FF03007F
:100C58007EFF0300F8290020EECE03009BFF03006F
:100C68001CC70300C3FF030050000020002A002017
:100C780028CF0300C4FE0300E9FF0300F8CE0300F9
:100C88001700040010B5012104460C3035F01FFF91
:100C98002146BDE810400B23014A0078C6E600BF94
:100CA80038CF03007FB501210C3035F010FF0378F1
:100CB80008220493074B08490393084B0293002327
:100CC800CDE9003218460122FFF778FE07B05DF83B
:100CD80004FB00BF90CF03001CC703002F000400D3
:100CE8007FB5C36808221B7807490493074B039311
:100CF800074B02930023CDE9003218460222FFF782
:100D08005DFE07B05DF804FB1CC70300A3CF03001A
:100D180055000400F0B5C66887B03578A5B9B6F8AF
:100D280001700F21384610F0C8FB044670B9154B06
:100D380001220393144B1549029308230497CDE924
:100D480000030346FFF73AFE07B0F0BDF3782946E3
:100D5800037310F08DFAA378012B05D0204607B055
:100D6800BDE8F04010F04BBA231DD3E8AF3FDB07D6
:100D7800F4D52046022110F07BFA28460FF045FAF8
:100D8800ECE700BFB9CF0300810004001CC70300D3
:100D980010B5C36801211C8886B0204610F08DFB71
:100DA800034668B9094A0A4903920A4A0494029216
:100DB8000822CDE900020122FFF700FE06B010BDAF
:100DC80006B0BDE8104010F01ABA00BFCECF03003D
:100DD8001CC70300AB00040010B5C3680121B3F8B9
:100DE800014086B0204610F068FB034668B9094AFE
:100DF80009490392094A049402920822CDE90002A3
:100E08000122FFF7DBFD06B010BD06B0BDE81040BB
:100E180010F0F5B9E1CF03001CC70300AB000400D4
:100E280070B5C5680121B5F8016086B0304610F08C
:100E380044FB044670B9104B012203930F4B104931
:100E4800029308230496CDE900030346FFF7B6FD95
:100E580006B070BD2B7823B90822E91CB53035F0EF
:100E6800FBF94FF40051201DFFF786FD204606B020
:100E7800BDE8704010F0C3B9F8CF0300AB00040020
:100E88001CC70300D0E8EF3F0B40C0E8E23F002A50
:100E9800F8D17047C0F30723537000231070000E79
:100EA800D070C1F30720090E9370137150719371BC
:100EB800D17170472DE9F041064688B0907A0F4607
:100EC800144619F016FD444D854217D0A47A2046E1
:100ED80019F00FFD414B08210393414BCDE906055D
:100EE800029300230222CDE900311846CDE90464BB
:100EF8003C49FFF763FD08B0BDE8F081204619F0D2
:100F0800FFFC4FF00C08384D08FB0050B0F82631B4
:100F1800B34216D0204619F0F3FC08FB0050B0F895
:100F280026310822CDE904632C4B2E4903932F4B1D
:100F380002930023CDE9003218460222FFF73EFD56
:100F4800D9E72B4ED6F8580120B119F0D0FD00236F
:100F5800C6F85831204619F0D3FC0C2606FB005081
:100F6800D0F82831A3B19FB9204619F0C9FC012156
:100F780006FB0050D0F82821D2E90003127A03F0CA
:100F88001F06B1405B0902B300EB8300FFF7F4FCD6
:100F9800204619F0B5FC0C2606FB0050D0F82C3181
:100FA800002BA8D0204619F0ABFC06FB005080F8B7
:100FB8002471204619F0A4FC06FB0055D5F82C0135
:100FC80008B0BDE8F0412EF0A9B9C94300EB830091
:100FD800FFF758FFDCE700BF1C1A002010D0030001
:100FE800D30004001CC70300F82900200C010400EA
:100FF8005000002038B5042104460C3035F067FD58
:101008004578017822464088FFF754FF25B1BDE8AE
:10101800384002482EF082B938BD00BF8801002050
:1010280038B5032104460C3035F051FDE3680578E6
:1010380022461978B0F80100FFF73CFF25B1BDE85A
:10104800384002482EF06AB938BD00BF8801002038
:1010580001222DE9F047C768008A3B7888B002EB87
:101068008301814240F287800493454BCDE9051006
:101078000393444B082102930023CDE9003118461D
:101088004149FFF79BFC08B0BDE8F0873F4B0122C0
:1010980002930823CDE9039ACDE900033A490346B0
:1010A800FFF78CFC01353B789D42ECDA07EB8503B2
:1010B800B3F801A00F215046B3F8036010F0FDF912
:1010C80004460028E2D000F1280A4EB34FF020036E
:1010D800EFF3118283F31288BFF36F8FE3696BB16B
:1010E800013BE36182F31188BFF36F8F20460FF055
:1010F80077FE013E2EF012F9B6B2E6E763699BB9B6
:1011080082F31188BFF36F8F214A18460292082292
:101118001D49CDE90032CDF80C900122FFF74EFCB5
:10112800204610F06CF8BDE7A06919688342616138
:1011380008BFA16182F31188BFF36F8F4FF02002BF
:10114800EFF3118182F31288BFF36F8FDA68E261DF
:10115800C3F80C80C3F80080626A4AB9C4E908334E
:1011680081F31188BFF36F8F50462EF008FCBDE75E
:1011780013606362F4E70025DFF80490A84692E75D
:101188001DD00300430104001CC7030071010400C3
:101198009101040070B5C5680121B5F8016088B0F7
:1011A800304610F08AF9044670B92D4B012203939A
:1011B8002C4B2D49029308230496CDE900030346DE
:1011C800FFF7FCFB08B070BD2B78061D1A2B19D150
:1011D800C378012B2AD14FF480613046FFF7CCFB4E
:1011E80042050FD4D4F8A83020460693D4F8B0307E
:1011F80006A9079311F0FEFA204608B0BDE8704032
:101208000FF0FDBF2B788BB9B5F80330A4F8A630E2
:10121800B5F80530A4F8AC30B5F80730A4F8AE300E
:101228006FF480713046FFF72DFE14E0D6E8AF3F2B
:10123800DB05F5D52B78202BF2D194F8B430002BB0
:10124800EED0013B84F8B4304FF42032002304F18F
:1012580060002EF0D3FC204610F0B7F9CCE700BFB1
:1012680037D00300AB0004001CC7030010B5C1E968
:1012780000239DF808300C460B7219F041FB0C2234
:10128800024B02FB0033C3F8284110BDF8290020A7
:101298002DE9F0474FF0FF324FF0FF33064618486C
:1012A8000F4619F0DBFB4FF00008044600F10C0A6A
:1012B8000121504635F034FA204684F8188019F098
:1012C8001FFB4FF00C090F4D09FB0050A0F82661D9
:1012D800204619F015FB09FB0050C0F82C81204668
:1012E80019F00EFB09FB005503215046C5F828816B
:1012F80035F020FA068087702046BDE8F08700BFE9
:101308001C1A0020F82900202DE9F041074615464F
:101318000C468EB021B9FFF7BBFF044600285ED00B
:101328000DF118080122002140462DF0DFFF20466C
:1013380019F0E6FA0C232D4E03FB0060C0F82C814F
:10134800204619F007FC0146294819F0CEFB4FF456
:10135800A022404600232EF007F8804688B14FF4BB
:10136800A973244A2449254833F09CFB4246394650
:10137800234833F097FB404080F311884FF0030077
:1013880002DF204619F0BCFA0C2303FB006696F82E
:101398002461E6B11B4B082203931B4B1B490293A4
:1013A8000023CDE904761846CDE900320222FFF782
:1013B80005FB204619F09BFB092E13D00D2E0CBF00
:1013C8006FF00B006FF004000EB0BDE8F08115B1AE
:1013D8002C600020F8E7204619F089FBF9E76FF048
:1013E8006800F1E76FF06E00EEE700BFF829002013
:1013F800B401002031FF0300AC0104007EFF0300AC
:10140800B50104004FD00300E10104001CC703002C
:1014180070B586B006460D4642F22F00002105AA97
:10142800FFF772FF044678B10D4B082203930D4B6A
:101438000D4902930023CDE9003218460122FFF737
:10144800BDFA204606B070BD0598C368B3F8012000
:101458003280B3F803302B8019F049FBF1E700BF65
:1014680064D00300010204001CC70300F7B5144B45
:10147800054693F99B300C46002B1DDA14B920461B
:1014880003B0F0BD082C4FF0000142F2180001AA89
:10149800264628BF0826FFF737FF0028F0D1019F0E
:1014A8003246F9682846013134F0D6FE384619F03C
:1014B8001EFB3544A41BE1E76FF08500E0E700BFA1
:1014C800500000200138C0B202289DBF024B1B18F3
:1014D80093F8F5010020704788CE03002DE9F0430A
:1014E80087B004460DF10B0100200DF02FFE0546D4
:1014F800002840F08780474E42F24300B36883F0EB
:101508000201C1F3400103F00103194409010A3142
:1015180001F0FE01FFF7BCFE0746002876D000F177
:101528000C090A21484635F005F9804629460A2261
:1015380034F09DFE96F8312196F8303108F102001A
:101548009A4294BF04F1900104F19E01FFF7A8F9B3
:10155800002388F800309DF80B2088F8093088F8B7
:101568000120B56815F002051AD10123102188F869
:101578000930484635F0DEF8B3890380F3894380A3
:10158800B4F8A8308380B4F8AA30C380B4F8AC307B
:101598000381B4F8AE300573438145738573C57311
:1015A800B368DB071ED598F80930102143F004030F
:1015B800484688F8093035F0BDF8328A0280728AC8
:1015C8004280B4F8A8208280B4F8AA20C280B4F877
:1015D800AC200281B4F8AE2042810022027342732B
:1015E8008273C273012300930C2338460DEB030169
:1015F800094AFFF73BFE0022394642F24300FFF753
:1016080083FE0546284607B0BDE8F0836FF06805FD
:10161800F8E700BF50000020240100202DE9F04722
:1016280086B005468A4600200DF10B0117460DF0DD
:101638008DFD0446002858D11C2142F28500FFF791
:1016480027FE0646002856D000F10C090C21484612
:1016580035F070F880460C22214634F008FE4046EA
:1016680088F801709AF8013005F1900100F8043B00
:10167800FFF716F99DF80B3088F8024088F8033018
:10168800DAF84830DA0434D413F4006F14BF0123B5
:10169800022388F80B301021484635F04BF80446F1
:1016A8001022002134F0E3FDB5F8A8303046A380BD
:1016B800B5F8AA30114AE380B5F8AC302381B5F803
:1016C800AE3000256381012325736573A573E57327
:1016D80000930C230DEB0301FFF7C8FD2A463146A2
:1016E80042F28500FFF710FE0446204606B0BDE82A
:1016F800F0870423CDE76FF06804F6E724010020A3
:101708002DE9F04186B006460DF10B0100200DF0E1
:101718001DFD0546002849D1192142F20D00FFF7A9
:10172800B7FD0746002845D019210C3035F002F8DE
:1017380004464FF000082946192234F098FD9DF818
:101748000B301E4D237395F8312195F83031601D0B
:101758009A4294BF06F1900106F19E01FFF7A0F8A6
:1017680084F80480AB8938462380EB89144A638067
:10177800B6F8A830A4F80D30B6F8AA30A4F80F309F
:10178800B6F8AC30A4F81130B6F8AE30A4F813307F
:10179800012300930C230DEB0301FFF767FD42467D
:1017A800394642F20D00FFF7AFFD0546284606B060
:1017B800BDE8F0816FF06805F8E700BF5000002031
:1017C8002401002030B5002187B042F20E00FFF757
:1017D8005FFD00250C2304460DEB0301054A009527
:1017E800FFF744FD2A46214642F20E00FFF78CFD22
:1017F80007B030BD2401002070B506460D4640F202
:1018080006400321FFF744FD044668B103210C306C
:1018180034F090FF068085702146BDE870400022B4
:1018280040F20640FFF770BD6FF0680070BDF8B574
:1018380007460E4642F2220006211546FFF728FD0C
:10184800044678B106210C3034F074FF3B8846809A
:10185800038085802146BDE8F840002242F222003C
:10186800FFF752BD6FF06800F8BD2DE9F0478146DB
:10187800884642F23200072117461E469DF820A0EE
:10188800FFF706FD0546A0B107210C3034F052FFE2
:10189800B9F8003080F802800380C7700671A0F89C
:1018A80005A02946BDE8F047002242F23200FFF7C2
:1018B8002BBD6FF06800BDE8F0872DE9F0430546C1
:1018C8000026384BB0F80190198849F470429142CB
:1018D8008DB004BF1E8001260DF054F82C78002C22
:1018E80070D03C2C24D10DF070FF6FF080011030C7
:1018F800FFF7C8FA0020FFF74AF8054670B92A4BE7
:1019080001220393294B2A4902930823CDE90003B6
:101918000346FFF753F80DB0BDE8F08304730021C8
:101928000FF0A6FC28460DB0BDE8F0430FF067BCE9
:10193800022C27D100210622084610F07BF8054624
:1019480078B91C4B012203931B4B194902930823B6
:10195800CDE900030346FFF731F800200EF055FCEF
:10196800D9E7002104730FF083FC2B1DD3E8AF3FA8
:10197800DB0703D5214628460FF07AFC28460FF0EE
:101988003EFCEAE70D4B4FF0080E03930C4B022286
:101998000293002306491846CDE9003E0494FFF758
:1019A8000DF8B8E7F829002080D0030025020400CC
:1019B8001CC703009DD003004A020400B5D00300F1
:1019C8006C020400EB782F1D012B08BF964B38469C
:1019D80008BF93F86F400CF04FFD3946002800F01F
:1019E800F7800AA80CF03EFD062205F111010DF161
:1019F800210034F031FC01238DF82030E8780028EC
:101A080040F0F28006220AA910F014F8EB78044698
:101A1800012B0AD10DF0D9FE80466FF080011030FD
:101A2800FFF730FA40460EF02FFAEB7823B96FF43F
:101A380080517E48FFF726FA002C00F0D780204618
:101A4800B5F801300AA920F8903BFEF729FF0022DB
:101A5800B5F81730A4F8A630B5F81930A4F8AC30AA
:101A6800B5F81B30A4F8AE30EB782273012BE37085
:101A780015D108A904F19700FEF712FF0DF0A5FE95
:101A8800217A694DC1EBC101294404F19E00FEF79A
:101A980007FFD5F8E4305F0601D50EF093FAE37836
:101AA8006BB908A904F19E00FEF7FAFE217A5E4B95
:101AB800C1EBC101194404F19700FEF7F1FE0721BB
:101AC80020460FF0D5FB1EB1012120460FF0D0FBB8
:101AD80020460FF071FD637B072B71D1231DD3E8DE
:101AE800AF3F13F4005F504E29D1E3781BB196F84D
:101AF800D8301D0723D5022142F21600FFF7C8FB94
:101B08000546002800F08D8002210C3034F012FECA
:101B1800238800220380294642F21600FFF7F4FBCF
:101B280068B1434B04900393424B0820029300236F
:101B38000122CDE9003040491846FEF73FFF96F8EC
:101B4800D930D90716D50025022329461A4620463A
:101B58000095FFF78AFE68B1354B04900393374B25
:101B68000122029308232846CDE9005332492B4627
:101B7800FEF724FF96F8D8309A0621D5D6F8843196
:101B88009B689B071CD50DF11E0107A8FFF740FCB9
:101B98000546A8B92046BDF81E20BDF81C10FFF761
:101BA80046FE68B1224B04900393254B0122029311
:101BB80008232846CDE900531F492B46FEF7FEFEB1
:101BC80020460FF01CFBE378002B7FF4A4AEC4E69C
:101BD80020460CF074FE01460AA8FEF761FE39465D
:101BE80008A8FEF75DFE09E7012816D038460CF074
:101BF80055FA144B4FF0080C0393134B04900293BF
:101C0800002301221846CDE9003C0B49FEF7D6FE19
:101C180013214846FFF7F0FD7DE60AA8FEF7B7FE58
:101C2800F4E66FF068007CE75000002024010020F3
:101C3800D1D00300A90204001CC70300CE0204008F
:101C4800E9020400B5D0030089020400C068FFF768
:101C580034BE10B5C16888B00B78174C8DF80030C9
:101C6800B1F8013001A8ADF80130CB7804318DF816
:101C78000330B1F80730ADF81730B1F80930ADF8D6
:101C88001930B1F80B30ADF81B304B7B8DF81D3097
:101C9800FEF706FE214606220DF10B0034F0DCFAB1
:101CA800062221460DF1110034F0D6FA6846FFF7F6
:101CB80004FE08B010BD00BF04EA030010B5038895
:101CC8004288934219D8052B17D9B2F5486F14D812
:101CD8008388B3F5FA7F10D240F67644C088A0F125
:101CE8000A0189B2A14208D801339BB25343B3EB2E
:101CF800800F34BF0120002010BD0020FCE713B581
:101D08000C468DF80700B8B949B90D499DF8070088
:101D18000DF1070218F036FB002002B010BD0722B3
:101D28002046084934F071FA0028EED021469DF883
:101D38000700FEF7D7FDEFE76FF01500EDE700BFEE
:101D480079090000F7E9030029289DBF024B1B18F9
:101D580093F85C020920704788CE0300F0B5C36889
:101D68000F21B3F8016087B030461D780FF0A5FB4E
:101D7800044670B9214B01220393214B2149029358
:101D880008230496CDE900030346FEF717FE07B0C3
:101D9800F0BD6DB12846FFF7D7FF29460246204619
:101DA8000FF01AFD204607B0BDE8F0400FF027BA43
:101DB8008778012FEED118F004FA2046FEF73AFD95
:101DC80006460028E6D10520FFF7BEFF052102469A
:101DD80020460FF001FD094B304603930A4B3A4663
:101DE800029308230749CDE900633346FEF7E6FD71
:101DF800052120460FF0D4FFD4E700BF0ED1030021
:101E0800810004001CC7030009030400F0B5C6687C
:101E18000F21B6F8017087B0384635780FF04DFBC2
:101E2800044670B9254B01220393254B254902939B
:101E380008230497CDE900030346FEF7BFFD07B06A
:101E4800F0BD6DB12846FFF77FFF294602462046C0
:101E58000FF0C2FC204607B0BDE8F0400FF0CFB944
:101E68008278F378012AC37205D00020FFF76CFF4F
:101E780000210246EBE70BB118F0A3F92046FEF764
:101E8800D9FC05460028F0D10520FFF75DFF0521A4
:101E9800024620460FF0A0FC084B284603930A4B45
:101EA8000122029308230749CDE900532B46FEF788
:101EB80085FD052120460FF073FFCBE72FD10300E6
:101EC800810004001CC7030009030400437B072B9F
:101ED80003BF038800200B806FF07F007047024B20
:101EE800D3F884315B6918475000002030B50546A7
:101EF8000C4687B019B9FFF7CBF9044610B340F682
:101F080035439D4218D12046FFF7E9FF0546B8B191
:101F18000E4B082203930E4B0490029300230D49A5
:101F28001846CDE900320122FEF748FD204618F098
:101F3800DEFD284607B030BD2146074818F0D5FD1C
:101F48000025F6E76FF06805F3E700BF42D103000C
:101F5800330304001CC70300B4010020F0B587B0A8
:101F6800044618F0CDFC354B03EB4003A07AB3F8D8
:101F7800185118F0BEFC21462DF0DCF8304B93F8D0
:101F88008A30990612D50F2128460FF096FA044692
:101F980070B92C4B022203932B4B2C490293082334
:101FA8000495CDE900030346FEF708FD07B0F0BD30
:101FB800437B073B012B12D9224B08220393244B66
:101FC8002249029300231846CDE900320222FEF787
:101FD800F5FC204607B0BDE8F0400FF010B90FF04F
:101FE8000EF9052140F63540FFF752F9044660B96D
:101FF800144B01220393174B144902930823CDE98C
:1020080000030346FEF7DAFCD0E700F10C070121D4
:10201800384634F08FFB012604210670384634F028
:1020280089FB002305808670C370214640F6354041
:1020380007B0BDE8F040FFF759BF00BFF8290020FE
:102048005000002052D10300590304001CC70300AC
:1020580087030400B7030400F0B5C468012126888B
:102068008BB0B7B238460FF028FA054670B9294B3D
:1020780001220393284B2949029308230497CDE9A9
:1020880000030346FEF79AFC0BB0F0BD06AFD4F888
:102098000220D4F8063001976189009117F09EF864
:1020A80030B3122142F21A00FFF7F2F8044678B969
:1020B8001B4B03931B4B0122029308231749CDE9BD
:1020C80000432346FEF77AFC28460FF098F8DBE732
:1020D80012210C3034F02EFB3946102220F8026B06
:1020E80034F0BAF8214642F21A00FFF7FFFEEBE798
:1020F800022142F21B00FFF7CBF8044608B90A4B4D
:10210800D7E702210C3034F015FB2146068042F255
:102118001B00EAE774D10300AB0004001CC70300EE
:1021280083D10300DE03040090D103007FB5064687
:102138000D4642F221000321FFF7AAF8044668B9C8
:102148000D4B012203930D4B0D4902930823CDE952
:1021580000030346FEF732FC04B070BD03210C30C7
:1021680034F0E8FA21460680857042F2210004B076
:10217800BDE87040FFF7BABEA1D10300F90304001F
:102188001CC70300F0B5C36889B0D9789A781F884E
:1021980042EA0122ADF8182059791A79BCB242EA0C
:1021A8000122ADF81A20D9799A79204642EA01220B
:1021B800ADF81C201A7A5B7A012142EA0323ADF8B4
:1021C8001E300FF07AF9054690B9214B2149039347
:1021D800214B0122029308230494CDE9000303460E
:1021E800FEF7ECFB02212046FFF7A0FF09B0F0BD87
:1021F80006A90FF02BFA38B91E212046FFF796FFE3
:1022080028460EF0FCFFF1E70E2142F22000FFF70E
:102218003FF806460028F3D00E210C3034F08AFA35
:1022280004460E22002134F022F82780BDF8183029
:1022380031466380BDF81A3042F22000A380BDF811
:102248001C30E380BDF81E302381FFF74FFED7E72F
:10225800B9D103001CC70300AB0004002DE9F04FFF
:10226800564DDFF85C8187B0D5F8A43155486FF337
:102278009433C5F8A4310EF063FF461C4FF0FF32CB
:102288004FF0FF33314650482FF06DF860B140F6FB
:10229800DE2342464D494E4832F004FC404080F36C
:1022A80011884FF0030002DF474FDFF82891DFF86D
:1022B80028A1DFF828B116B92EF05CF9D4E7FB683D
:1022C800C3F38633022B60D9042B68D13B7B002BE8
:1022D8005ED100220023424818F0D8FB044660B9BA
:1022E8004FF4276342463F49394832F0DBFB404010
:1022F80080F311884FF0030002DF4FF0FF334FF0F7
:10230800FF3239482DF030F8D5F858319BB1374BAA
:1023180008200393364B0122029300232F49CDE96D
:1023280000301846FEF74AFBD5F8580118F0DFFBD5
:102338000023C5F85831204618F00CFCC5F85801A0
:102348002046FFF7CCFD00B3284B08210393294B07
:102358000490029300230122CDE9003118461F4959
:10236800FEF72CFB20482CF0D9FF204618F0C8FABD
:102378000C22214B1F2102FB00302246B0F8260117
:10238800FEF798FD204618F0B2FB1437013E92E79D
:10239800012BFAD1386938380FF06CFEF5E70822BE
:1023A800CDE9039300235946CDE9003218460222AD
:1023B800CDF808A0FEF702FBE7E700BF50000020B9
:1023C80031FF0300FC010020E8010020AC010400FB
:1023D8007EFF0300D4D10300360404001CC70300A9
:1023E800B40100203B1C040088010020CBD103006D
:1023F8001704040033030400F82900202DE9F041F4
:10240800044600F10C06304634F0F6FBB4F81080B0
:102418000546B8F1010F0CD840F685631B4A1C49E4
:102428001C4832F03FFB404080F311884FF0030016
:1024380002DF3046022134F04AFB07460078FEF7F7
:10244800E7F9C20706460CD440F689630F4A1249D9
:10245800104832F027FB404080F311884FF003000A
:1024680002DF052321460D4A3878FEF7DFFAB30765
:1024780007D56369A4F8108013FA85F5E560BDE80F
:10248800F0812046BDE8F04118F031BB31FF030070
:1024980065FF03007EFF03005B040400E4D1030032
:1024A80030B5037E0446012B87B006D0032B12D12A
:1024B800FEF794FA002007B030BDC3681878FEF71D
:1024C800A7F90546E80702D52046FFF797FFA907B1
:1024D800F0D52046ECE70493094B08220393094BF7
:1024E8000949029300231846CDE900320122FEF77C
:1024F80065FA204618F0FBFA6FF01500DBE700BF1D
:102508000CD20300740404001CC7030010B5037E3A
:102518000446012B0CD040F6DB63084A08490948F9
:1025280032F0C0FA404080F311884FF0030002DF18
:102538002046FFF763FF002010BD00BF31FF0300F6
:102548008C0404007EFF0300084A0346D2F8840185
:1025580030B9D96839B1596929B1C2F8843170479D
:102568006FF0770070476FF015007047500000203B
:102578002DE9F047384C88B0042104F1D400FEF767
:10258800FBF900200DF041FE344DE279344B204632
:10259800012A88BF1D460BF081FD324B4FF0080819
:1025A80002930023304ECDE9045003221846CDE9AA
:1025B80000382E490396FEF701FA27460125DFF871
:1025C800B090DFF8A8A0E37907379D4231DB94F893
:1025D800705008272846FEF746F9B4F876300322EB
:1025E8000793B4F872302149CDE905530025214BF2
:1025F800CDE90360029328462B46CDE90057FEF744
:10260800DDF994F871804046FEF72DF9B4F874307E
:102618000322CDE90583184BCDE90360CDE90173A9
:1026280028462B4611490095FEF7C8F908B0BDE8C1
:10263800F08738460BF032FD0023CDE90450032221
:1026480051461846CDE90296CDF804800093FEF76E
:10265800B5F90135B7E700BF500000204EF0030080
:10266800AF040400B304040014D203001CC7030021
:10267800C6040400DB0404001D0504002DE9F04134
:10268800674D8CB0D5F88431996811F001011DD1DE
:1026980040F603400BAAFEF737FE0446002840F038
:1026A800BA800B9CE3681B786BB90DF0A7FD05F1A8
:1026B800D403D3E8AF2F02F00902D3E8EF1FC3E831
:1026C800E02F0028F9D1204618F011FA002141F234
:1026D80003000BAAFEF718FE0446002840F09B8072
:1026E8000B9E0822F1684F48013133F0B5FD3046A2
:1026F80018F0FDF9214641F201000BAAFEF704FE8D
:102708000446002840F087800B98C3685A7885F8FB
:1027180070205A88A5F872201A7985F87120B3F8C4
:102728000720A5F87420B3F80530A5F8763018F01E
:10273800DEF9214641F202000BAAFEF7E5FD044648
:10274800002868D10B9C4022E1683748013133F0FA
:1027580083FD204618F0CBF90DF098FF04460028B9
:1027680059D195F88A3013F020031ED12F4A3049E9
:102778000392304A02920822CDE900320222FEF783
:102788001DF995F87C3013F0400359D12A4A1846B0
:1027980003922A4A264902920822CDE900320122F0
:1027A800FEF70CF96FF0120435E0072140F63340CC
:1027B800FEF76EFD0746002800F04B8107210C301C
:1027C80033F0B8FF21460722064633F050FD452373
:1027D80033700623224674703471394640F633400C
:1027E800F370FEF791FD0446A8B9012140F6314087
:1027F800FEF74EFD0646002800F02B8101210C3023
:1028080033F0A7FF2246314640F63140FEF77CFD03
:1028180004460028B5D020460CB0BDE8F08100BFC2
:1028280050000020C8000020D000002025D203005E
:102838001CC703004805040036D203007A050400CB
:10284800002142F203000BAAFEF75EFD04460028B1
:10285800E1D10B9E0822F168A148013133F0FCFC5C
:10286800304618F044F9214642F202000BAAFEF75E
:102878004BFD04460028CED10B9CE368B3F8012039
:1028880091B241B1D97831B1A5F80C21DA789548DF
:1028980011462CF02BFD204618F029F995F87C609C
:1028A80016F0200618D1022140F66D40FEF7F0FC24
:1028B8000446002800F0CD8002210C3033F03AFFA6
:1028C8000123214603704670324640F66D40FEF7FC
:1028D8001BFD044600289ED195F89C301F0712D591
:1028E800002142F21C000BAAFEF70EFD0446002848
:1028F80091D10B98C368D3F80120D3F80530C5E906
:10290800382318F0F4F895F8D8309E0625D50DF13F
:102918002A010AA8FEF77CFD044600287FF47BAF55
:10292800042142F22400FEF7B3FC0646002800F01A
:10293800908004210C3033F0FDFEBDF8283022468B
:102948000380BDF82A303146438042F22400FEF766
:10295800DBFC044600287FF45EAF95F8D8305C06AF
:1029680010D5002142F22A000BAAFEF7CDFC04463E
:1029780000287FF450AF0B98C3685B7885F8303136
:1029880018F0B5F8082142F20100FEF781FC044670
:1029980000285ED008210C3033F0CCFE95F8D81012
:1029A80040F2022311F0400F08BF032302468807B4
:1029B8004CBF43F02C0043F00C008B0695F8D9303F
:1029C80048BF40F0400013F0090F95F8A23018BF37
:1029D80040F4006003F00603CF0748BF40F0100042
:1029E800062B08BF40F4C0700021FEF753FA2146B9
:1029F800002242F20100FEF787FC044600287FF41B
:102A08000AAF95F87C30B5F80C119E0624D4C9B9E4
:102A180041F205000BAAFEF777FC044600287FF474
:102A2800FAAEB5F80C310B9C4BB9E368B3F801204A
:102A3800A5F80C219A882B4811462CF057FC204603
:102A480018F055F8082140F60140FEF721FC04462D
:102A580098B96FF06804DEE60029F3D1224B012211
:102A68000393224B224902930823CDE9000303462E
:102A7800FDF7A4FF6FF00404CDE608210C3033F015
:102A880059FE95F8D8300246D8071ED44FF00051A9
:102A98001848FEF7FFF92146002240F60140FEF7EC
:102AA80033FC044600287FF4B6AE01460BAA4FF665
:102AB8000140FEF729FC104D10B3104B039502930B
:102AC800082301932346009483E003A1D1E9000180
:102AD800DFE700BFAFF3008090880002008000208D
:102AE80028010020600100203ED20300A205040056
:102AF8001CC703001088000247D20300C905040060
:102B0800DDF82C80A5F2BF36D8F80C400821B4F8BF
:102B180001300395032B9ABF06EB8302D2F8CC232E
:102B28004C4ACDE904234C4B032202930023CDE900
:102B3800003118464949FDF741FFB4F80130B4F8AF
:102B48000320022B59D1032A57D806EB8203D3F866
:102B5800DC33CDE90432424B0822029300233F497B
:102B68001846CDE9003203950322FDF727FF637964
:102B78000827032B9CBF06EB8306D6F8EC234FF0FF
:102B88000006D4F8091088BF324A0891B4F8071033
:102B980030460791A179CDE90352CDE90531314B92
:102BA80003222E490293CDE900673346FDF706FF5D
:102BB800404617F09CFF31464FF602400BAAFEF73D
:102BC800A3FB0446D8B1284B0395CDE901733346DE
:102BD8000096022218462149FDF7F0FE0CF0EEFBA4
:102BE800044600287FF417AE0FF052FB0446002875
:102BF8007FF411AEFFF7BCFC0DE6164BA9E7DDF834
:102C08002C801A4ED8F80C100222013106F1C100AE
:102C180033F022FB404617F06AFF96F8C1305B0795
:102C2800DCD521464FF603400BAAFEF76DFB20B119
:102C38000F4B0395CDE9017344E701220B9C06F184
:102C4800C000E168114433F007FB204617F04FFF3E
:102C5800C4E700BFBCFE0300F10504001CC7030065
:102C68000E0604002A0604005B060400500000203B
:102C78008806040010B5FFF701FD044BD3F89C311A
:102C880013B1BDE81040184710BD00BFF829002057
:102C9800F0B53E4E0746D6F8843189B083B93C4A30
:102CA800184603923B4A3C4902920822CDE9003279
:102CB8000122FDF783FE6FF01205284609B0F0BD2A
:102CC8006FF0020106F1D400FEF7DCF80121FDF7F0
:102CD80053FE10EA010455D1304DC5F89C710A46DF
:102CE80006F59C702CF002FB06F5B2702CF0DBF9AF
:102CF80000220023CDE906236FF008034FF4806219
:102D0800CDE90243CDE90044254B2649049405F555
:102D1800D0702BF045FE244905F5D0702BF06AFDE4
:102D280005F108002CF08CFE6FF007034FF4966253
:102D38001E49009405F108002CF089FE1C4905F194
:102D480008002BF057FDD6F88431DB689847054614
:102D580070B10F4B04900393164B01220293082382
:102D68002046CDE900430C492346FDF727FEA4E79A
:102D78001FB909B0BDE8F04080E406F1C4002CF0AA
:102D8800FEFD9AE76FF0770597E700BF5000002037
:102D980084D20300B50604001CC70300F8290020EC
:102DA80065220000F8760020D20604004872002050
:102DB800D8060400DE06040070B5354D86B0D5F897
:102DC800843183B9334A18460392334A334902920D
:102DD8000822CDE900320122FDF7F0FD6FF0120460
:102DE800204606B070BD1B69002B4AD0022105F1B0
:102DF800D400FDF7C1FD10EA010645D16FF00401CA
:102E080005F1D400FEF73EF8D5F884311B699847E0
:102E1800044698B11F4B04900393214B304602930C
:102E280008230122CDE900631C493346FDF7C6FD9E
:102E3800042105F1D400FDF79FFDD1E740220146AA
:102E480005F1800033F013FA05F168001549FDF724
:102E580027FD0CF0B1FC0DF063FD0EF071FB0222B2
:102E68002146114833F003FA104808F0A7FA104831
:102E780008F0A4FA6FF0010105F1D400FEF702F89A
:102E8800AEE76FF08504ABE76FF07704A8E700BF03
:102E9800500000208ED20300B50604001CC70300B2
:102EA800FE060400F7E90300F8290020982B00200B
:102EB800002A0020024BD3E8AF0FC0F38000704710
:102EC800240100206FF00B0070470148704700BFD5
:102ED8001F0704000020704708B517F0F7FA18B16B
:102EE800C089003818BF012008BD7FB51B4B0546B7
:102EF80093F89B3013F008030FD1194A1846039230
:102F0800184A194902920822CDE900320222FDF737
:102F180055FD6FF0850004B070BD052142F2140024
:102F2800FEF7B6F90446A8B105210C3033F002FCCF
:102F380029460422064633F08FF90022214642F240
:102F480014002B7903F01F03337104B0BDE87040FF
:102F5800FEF7DAB96FF06800DDE700BF5000002027
:102F680099D20300260704001CC703002DE9F3418A
:102F78000F46D11C8046C9B240F6834014461E460F
:102F8800FEF786F9054610B303210C3033F0D2FB67
:102F980080F800804770847024B12246314603309F
:102FA80033F05AF9294640F6834001AAFEF7ACF9F6
:102FB800044640B90198C3681B78002B18BF6FF00E
:102FC800040417F094FD204602B0BDE8F0816FF0CC
:102FD8006804F8E77FB50BAB059303930A9B0820B9
:102FE80002930023CDE90030184605F0A2FC07B093
:102FF8005DF804FB1FB5084B08220393074B0849EB
:1030080002930023CDE9003218460322FFF7E2FFBE
:1030180005B05DF804FB00BF10E5030090EE030067
:10302800BCC703001FB5084B08220393074B084988
:1030380002930023CDE9003218460322FFF7CAFFA6
:1030480005B05DF804FB00BF1DE50300AAEE030010
:10305800BCC703001FB5084B08220393074B084958
:1030680002930023CDE9003218460322FFF7B2FF8E
:1030780005B05DF804FB00BF32E50300CCEE0300A9
:10308800BCC70300F0B5002408265F4D5F4B9DB018
:103098000293032223462046CDE900465C49039566
:1030A800FFF798FF5B482BF0C1FE012221465A48E2
:1030B8002CF01CF959495A482CF0E1FB59495A4857
:1030C8002CF064FD2246594959482DF035FF5949DD
:1030D8000A23042201F128002BF036FD56482BF074
:1030E800E2FF56482BF0DFFF4FF400725449554871
:1030F8002CF086F954493346402201F500702BF034
:1031080067FA52482DF024FC402100220023504841
:103118002BF00FFA014610B14D482BF014FA4D4C24
:1031280020462AF079FFA0B12769A6683B684FF4CA
:10313800003223F001033B603368002120469847A2
:103148003B68DB074FF00101204654BFF368336941
:103158009847414C20462AF05FFF28B1A368102207
:1031680020461B6808A99847079B0BB908AB07932B
:103178000CAB05934FF48003002408260A2105A808
:10318800069333F0D7FA079B34480593ADF81840F7
:103198000AF06CF831480AF06EF8214602223048ED
:1031A80009F03FFD2E4809F05DFD2E4B20460293A5
:1031B80003222346CDE9004615490395FFF70AFF88
:1031C800294B2046CDE90163042223461049039583
:1031D8000094FFF7FFFE254B01222046CDE901634D
:1031E8000B49234603950094FFF7F4FE0C482CF096
:1031F800C6FB002140F6CD402DF026FA2DF0BAF995
:1032080020461DB0F0BD00BF40E50300E7EE030017
:10321800BCC70300001B00201C1B0020FD2F000062
:103228003C1B00202D300000501B00205D300000AA
:10323800801B0020C01B0020201C0020401C0020F8
:10324800285F0020601C0020801C0020A41E002095
:10325800A016002044C303006CC30300E80200204A
:10326800B41E002021EF030037EF03004EEF0300E8
:10327800002B18BF4FF0FF3070B50E4D9DF8106051
:103288000A44914202D106B1C04370BD11F8013B16
:1032980083EA000404F00F0455F8244084EA10106F
:1032A80080EA131303F00F0355F8233083EA101054
:1032B800E7E700BFC8C80300C04330B50C4D0A4457
:1032C800914201D1C04330BD11F8013B83EA0004AB
:1032D80004F00F0455F8244084EA101080EA131310
:1032E80003F00F0355F8233083EA1010E8E700BF16
:1032F80008C903000A4601460020FFF7DDBF00BFEA
:1033080010B5094C0A44914200D110BD11F8013B97
:1033180058400309E35C0001C0B243401809205C2F
:103328001B01DBB25840EEE745E50300F0B5014468
:10333800054618469DF814608D4200D1F0BD15F879
:10334800013B584008235EB100F001075C1E4008AD
:1033580097B182EA0003D8B22346002CF4D1EBE7F8
:1033680010F0800F4FEA4000C0B203F1FF3318BFDE
:103378005040002BF4D1DFE72346002CE3D1DBE7F4
:103388002DE9F043079D15B91560002012E00324CC
:10339800B5FBF4F404EB4407BD4218BF0134B4F1A3
:1033A800804F09D2A40001348C4200D838B96FF09C
:1033B8000B001460BDE8F0834FF0FF34F7E70446D4
:1033C8000021DFF8B4E0B94203F1030C04F104066C
:1033D8002BD3A942274623D201F1010CAC451F7813
:1033E80028BF002324494FEAA70E38BF5B7811F89D
:1033F8000EE0AC4584F800E001EB131E2EBF3D2320
:103408009B0003F03C034FEA071738BFCB5C07F07B
:1034180030071EF80770A3703D2367703746E370C6
:103428000023381A10603B70AFE71CF8034C1CF8F7
:10343800023C4FEAA4091EF8099024011CF8018CEB
:1034480004F0300406F8049C0EEB131919F8044034
:103458009B0006F8034C03F03C030EEB9814E35C66
:1034680008F03F0806F8023C1EF80830344606F813
:10347800013C03316346A6E755E503004FF0000C15
:103488002DE9F04364466546DDF81CE0DFF820814D
:1034980075451CD3D4BB00201460BDE8F083013609
:1034A800764531D09F5D202FF9D0AEEB0609B9F1F2
:1034B800010FA6EB05050CD00D2F0AD103EB060969
:1034C80099F80190B9F10A0F6ED1751CE0E72E4604
:1034D800E6E70A2FF9D035B93D2F07D10CF1010CD9
:1034E800BCF1020F0ED96FF01500D6E73D06FAD4ED
:1034F800474497F840507F2DF5D03F2D02D8BCF1B6
:10350800000FF0D10134E0E73546C3E7062704F0A1
:103518000706E4087E437C430736A4EB0C0404EB5F
:10352800D60470B18C420CD80027014603263C46CD
:10353800DFF87CE0DFF87C801D449D4205D10C1A41
:10354800A9E76FF00B001460A7E713F8019BA9F136
:103558000A0C5FFA8CFCBCF1160F04D848FA0CFC74
:103568001CF0010FE9D0F14499F840C00134BCF1D6
:10357800400F08BF013E0CF03F0C042C4CEA8717A3
:10358800DBD17EB13C0C012E0C7002D1013100243C
:10359800D3E7022E4FEA17244C7016BF8F70023102
:1035A8000331F4E73446C8E7002DA1D09BE700BFFC
:1035B80055E50300F6FFBFFF7FB50BAB05930393FB
:1035C800064B082202930023CDE900321846022256
:1035D80005F0AFF907B05DF804FB00BF6AEF030020
:1035E8002DE9F04F91B0009302F004030293C2F367
:1035F800C2030133840705460E46DDF8689003923E
:10360800059340F0BB81041D30B1072909D86FF03C
:103618001B0011B0BDE8F08F01F00706341DC6F19C
:103628000806009B4FF000084FF0040A591E4FF09F
:10363800FF3347460193C3465346CDF810800DB17A
:10364800009A22600598002800F3E8809848009ABC
:10365800824203D397488242C0F0E080039AA4EBE9
:10366800050E92074FEA9E0000F103810F2F00F22A
:10367800B180002D00F0058107F140020DEB020C2E
:10368800019A0CF8200C0CF8102C049801300490C6
:10369800E7E07A285DD84B280ED8472859D829283A
:1036A8002DD8252852D054D820287AD02338D0F1C4
:1036B800000B4BEB000B74E04C382E2849D8DFE8A0
:1036C80000F07048484848484848484848484B48E7
:1036D8004848484848484859484B4B595959704BED
:1036E8006D487048184B184848827F4B48484B48EB
:1036F8007F0000204FF0000B4FF0040A38E0012251
:103708002A38C0B202FA00F010EA0E0F49D110F0C0
:10371800625C2FD110EA020B43D06046013C54444E
:10372800B4FBFAF40AFB04F4002D61D0A3EB050CFA
:10373800A444B4453FF66BAF002868D1042B47D1A9
:1037480059F8043B2360042304342AE0019A013A1F
:1037580001924FF0000B24E011F8010C6C2834D1D1
:10376800002011F8023C83466C2BC5D14FF0080AA3
:103778005346D3E709F1070929F00709073424F06C
:103788000704F9E802AB35B106982044B0423FF689
:103798003EAFC4E900AB4FF0000B08344FF0080A05
:1037A800534611F8010F002878D0BBF1000F7FF4C1
:1037B80070AF2528F5D14FF0010B019B0133019320
:1037C8004FF0040AECE7584694E700208346A5E743
:1037D800082B02D06FF015001BE709F1070929F043
:1037E8000709F9E80223C4E9002308230834D8E7C5
:1037F80068B9042B02D109F10409A4E7082BE9D11F
:1038080009F1070929F0070909F10809EDE7059AFF
:10381800013A059259F8042B009210E7039A900791
:1038280020D54FF0010CA4EB050E4FEA9E00BEF523
:10383800007FCFD20F2FCDD8F5B107F140020DEBA5
:10384800020E019AC0B20EF8200C0EF8102CBCF132
:10385800000F3FF41AAF60F07F000EF8200C08F15B
:1038680001080137C5F108024FF6DA7E04340692E2
:1038780097E74FF0000CDAE7BCF1000F01D00136F2
:10388800EFE7029802360028EBD10098CDE906311F
:1038980032F052FCDDE906310644E2E7631BB3F57A
:1038A800806F97D245B9A6F10804E018B1E600BFC9
:1038B800FCC10300A4350400029A9B0828602B7001
:1038C8009DF81030C2B1EB7085F80280B8F1000F96
:1038D80005D0002208A8C5F1010C97420ED14FF07F
:1038E800000AC5F101030DF1200901930DF1300B18
:1038F800574512D1601B8CE66B70E5E710F8013B69
:10390800190608D504EB0C0EB64503F07F033FF605
:103918007EAE04F8013B0132DFE7B8F1000F03D0B7
:1039280099F90020002A17DB029BD3B11AF80B2063
:1039380004F8012B0022019B98182044B0423FF65E
:1039480066AE99F80000009904F8010B204603922E
:1039580032F082FC039A14440AF1010A09F10109C0
:10396800C6E799F8002055F822300093029B00988A
:1039780045F8223032F0E0FB421CDCE76FF00D0026
:1039880047E608B410B585B007AC54F8043B00947A
:103998000394FFF725FE05B0BDE8104001B070475D
:1039A8002DE9F04706460D46174698462BB34FF0CB
:1039B800000A98F8004093F80190DB78A40004EB23
:1039C800430498F802301C444444CA4509D3394694
:1039D8003046AC46D8F8042008F10803BDE8F047A3
:1039E800604714F8013B0AF1010A204648F82340D1
:1039F80032F0A2FB01300444E7E76FF01500BDE8A0
:103A0800F08770B5002502462846144614F8013B95
:103A18000BB9184609E098B18D4207D1702B04D034
:103A2800A3F140023A2A0BD8002070BDA3F140064A
:103A38003A2E05D853780135941C002BE9D0002084
:103A4800252B224608BF80F00100DEE72DE9F04F64
:103A580099B0DDF888A00893CAF3C00304468946E4
:103A68000692099349B903784678807800EB830079
:103A780020444E4517D8A0EB040994F802B0E37827
:103A88005F46BBF1000F02D01AF0010F14D13BBB07
:103A9800069B1BB149462046089A98474E46304631
:103AA80019B0BDE8F08F451C284632F045FB0130BF
:103AB800284409F10109DCE7626825780792069A2B
:103AC800A9000A9104EB8505002A40F0F280A84677
:103AD80000274E460BEB0509C84547D15D4411E068
:103AE8001AF0020FD4D02578AA000A92626804EB73
:103AF80085050792069A002A71D14E46BBF1000F40
:103B080048D15F461AF0050F0CBF4FF0020B4FF07B
:103B1800010B05EB43090AF0020306934D45BED09D
:103B280015F8021B15F8013C54F82380A04B984562
:103B380002D3A04B984533D3099B002B3DD007985F
:103B4800FFF75FFF002838D0079B082204939A4BA1
:103B580005910393994B9A4902930023CDE90032CA
:103B680018460222FFF728FD023ED7E718F8012B76
:103B7800069354F8220032F0DFFA239A069B0130AC
:103B880032B1249A97423EBF239A22F81700013790
:103B98000644A1E71AF004071CBF069F5D44B1E77D
:103BA800099B23B10798FFF72CFF0028CCD11AF006
:103BB800010F05D1A6EB0B06B0E7069B002BADD095
:103BC800404632F0B9FA239B3BB1249B9F423FBF4A
:103BD800239A431C22F81730013706449EE7BBF1AD
:103BE800000F6AD01AF004076AD0D846002714A834
:103BF8005A4629460B9332F02FFB0B9B5D445A0023
:103C080005EB43030B930AF002030C920D930B9BF5
:103C18009D4257D123781AF0020F0793637818BF93
:103C2800002103EB070208BF4FEA58011AF0010F01
:103C3800D2B240F090801AF0040F14BF4046002022
:103C480094F802A0E57809936270A070E1702046AC
:103C5800089A0A99069B9847061EFFF620AF079B0D
:103C6800E5702370099B41466370089A069B84F8A7
:103C780002A014A89847051EC0F295800A9BA9EBDC
:103C88000B01C91A0C9B089AC91A0B98069B9847EE
:103C98000028C0F28A804FF0000835442E180DF134
:103CA800400B474559D80021089A0846069B984773
:103CB800F5E64FF0000810A89AE7D8465F469DE75A
:103CC800B8469BE715F8021B394A15F8016C54F8F9
:103CD8002630934202D3374A934219D3099B23B122
:103CE8000798FFF78EFE002891D10D9BDBB908F1EC
:103CF80060026A4408F1010302F8101C18AA08F1CE
:103D0800020852FA83F35FFA88F803F8106C7EE72A
:103D1800099B2BB10798FFF774FE00287FF477AF53
:103D28001AF0010F08D007F160027B1C0DEB0207A7
:103D380007F8206CDFB26AE71AF0040F3FF467AFA8
:103D480008F1600208F101030DEB020808F8106C95
:103D58005FFA83F85BE7002072E718F80B3054F835
:103D680023908DF83F30239BDBB133F818500121A5
:103D7800089A069B0DF13F009847002815DB06447A
:103D880025B9484632F0D8F9451CADB2294648460F
:103D9800089A069B9847002807DB064408F10108A3
:103DA8007FE7239DE3E72E4679E6064677E600BFE0
:103DB800FCC10300A435040015E603006AEF030004
:103DC80064C70300002070472AF05CB908B5FFF704
:103DD800FBFF162303604FF0FF3008BD1F2808B50E
:103DE80006D9FFF7F1FF092303604FF0FF3008BD44
:103DF8003822054B02FB00300830D0E8AF3F002BDB
:103E0800EFD00020F3E700BFEC0200200CB403461B
:103E180007B504AA084652F8041BDB6801929847C4
:103E280003B05DF804EB02B07047002070472BF038
:103E380089B838230D4930B503FB00130833D3E89C
:103E4800AF2F92B1541ED3E8EF5F954204D1C3E877
:103E5800EC4FBCF1000FF6D1F1D1012A05D138237E
:103E6800584300230A180B50536030BDEC02002061
:103E780070B504460D461646FFF7B0FF00280ADB6A
:103E8800084A55B1382303FB04235B68AB4204D0CE
:103E9800FFF79AFF0660002070BD38235C43105975
:103EA800FAE700BFEC020020F8B51E46154B17468E
:103EB80000241D461A68904202D15A6891420AD0DD
:103EC8000134202C03F13803F4D1FFF77DFF1723C9
:103ED8004FF0FF3403602046FFF780FF00280EDB19
:103EE80027B1382101FB04510C3139600EB901208A
:103EF800F8BD382303FB045528353560F7E7002063
:103F0800F6E700BFEC02002070B504460E461546E1
:103F1800FFF764FF00280DDB38236343064AD118F6
:103F28004968316015B10C3313442B6038235C4366
:103F3800105970BD0020FCE7EC02002070B5002588
:103F48004FF0FF334FF0FF3217482AF07FFF174B2F
:103F5800D3E8AF2F7AB10135202D03F13803F7D11B
:103F6800FFF732FF17234FF0FF3503600E48FFF7C6
:103F78005EFF284670BD38246C43D3E8EF0F01304C
:103F8800C3E8E10F0029F8D1094E331932515A60BC
:103F980004F10C0030442AF049FF04F128003044B1
:103FA8002CF0D6FCE2E700BFF4160020F402002053
:103FB800EC02002010B40446104638225443074B44
:103FC8001A191951506038B1C2682AB10C34234407
:103FD80040F2051210BC19E710BC7047EC02002033
:103FE80027E770B505460E46FFF7A8FF041E03DB5A
:103FF80032462946FFF7DEFF204670BD2DE9F04125
:1040080004460F469046FFF7E9FE00281ADB3823DE
:104018005C430E4E04F10C0535444FF0FF324FF06F
:10402800FF3328462AF012FF33195B68305942469D
:1040380039461B68984704462846FFF7F8FE20468D
:10404800BDE8F0814FF0FF34F9E700BFEC02002033
:104058002DE9F04104460F469046FFF7BFFE0028C1
:104068001ADB38235C430E4E04F10C0535444FF03F
:10407800FF324FF0FF3328462AF0E8FE33195B6819
:104088003059424639465B68984704462846FFF748
:10409800CEFE2046BDE8F0814FF0FF34F9E700BFBF
:1040A800EC020020F8B50546FFF798FE00281ADB59
:1040B80038246C430D4F04F10C063E444FF0FF3298
:1040C8004FF0FF3330462AF0C1FE3B195B68385980
:1040D8009B68984704463046FFF7A9FE2846FFF735
:1040E800A8FE2046F8BD4FF0FF34FAE7EC020020A6
:1040F80010B50446FFF772FE00280BDB382202FBDE
:1041080004F0064B4FF480721C1819586068BDE81B
:1041180010407BE64FF0FF3010BD00BFEC020020DE
:1041280073B504460D461646FFF758FE00280EDB09
:10413800382303FB04F0074900960C182B4609584E
:1041480040F201126068FFF761FE02B070BD4FF0E7
:10415800FF30FAE7EC0200200EB417B50446FFF76B
:104168003DFE002810DB382101FB04F0084B06AAAD
:10417800191849681858CC6805990192A04703B0E6
:10418800BDE8104003B070474FF0FF30F7E700BFBD
:10419800EC0200200EB433B5059D0446FFF71EFE61
:1041A800002804DB55B9FFF70FFE162303604FF014
:1041B800FF3002B0BDE8304003B07047382101FB42
:1041C80004F0054B06AA191849681858CC682946FE
:1041D8000192A047EDE700BFEC02002000207047E5
:1041E80030B58A680C68551C14B14B68934201DCE1
:1041F8008D6030BD013B934208BF00228D600CBF2B
:10420800E254A054F5E7014B18607047EC09002010
:10421800014B1868704700BFEC09002004F020B972
:1042280070B50446044E4518AC4200D170BD3368E1
:1042380014F8010B9847F7E7EC0900200FB407B50D
:1042480004A951F8040B019104F00AF903B05DF8D0
:1042580004EB04B0704730B5002587B0CDE9030101
:104268000446009503A90548059500F034FEDDE9EC
:1042780004309842B8BF255407B030BDE94100006A
:104288000CB407B504AB53F8042B0193FFF7E3FF15
:1042980003B05DF804EB02B0704700BF836800EB21
:1042A800C101B3F5004F2CBF51F8220031F81200BC
:1042B8007047012208B5FFF7F1FFD04008BD8368B9
:1042C80000EBC101B3F5004F08D34B681AB143F0B6
:1042D80001034B60704723F00103FAE74B881AB1DA
:1042E80043F001034B80704723F00103FAE710B550
:1042F8000C46FFF7DEFF204410BD08B58368B3F510
:10430800004F05D3FFF7D5FF431E5842584108BD5B
:104318000020FCE710B5084908480B684C6858436A
:10432800074A02FB0400A3FB0232064C1B1940EBB0
:104338000200C1E9003010BD00000020E62EBB27B6
:10434800FDB0B0872DF304B570B50D4600210646C3
:10435800FFF7CDFFA8420BD8B468A54208D229467A
:104368003046FFF7A6FF844294BF0020012070BDAD
:104378000020FCE7B0F5004F34BF04230823481C95
:104388000833A0EBD300B0FA80F0C0F11F007047EB
:10439800F8B504460D46FFF78CFF78B3A3682844A8
:1043A800984255D829462046FFF7CEFF30B3002261
:1043B80029462046FFF772FF2F1A39462046FFF795
:1043C80096FF854244D129462046FFF790FF0022F8
:1043D800064601462046FFF761FF301A854239D16B
:1043E800012229462046FFF759FFC30707D529466A
:1043F8002046FFF782FF80F00100C0B2F8BD3946C1
:104408002046FFF74BFF10F00100F7D03146204659
:10441800FFF744FF10F00100F0D029462046FFF7CF
:104428006CFF0028EAD1294602222046FFF736FF12
:1044380001462046FFF788FF0028DFD0294620469E
:104448000322FFF72BFF01462046BDE8F8407BE733
:104458000020D3E71046D1E72DE9F843046800218E
:104468002046FFF744FF0546A668AE4226D82AD163
:10447800002704F11008A1680846FFF77BFFB8423F
:104488002ADA00212046FFF732FF00260546A368F6
:10449800AB424FD817D1002604F10C08A168084692
:1044A800FFF768FFB04269DA00212046FFF71FFFD7
:1044B800A368054683427AD8012005E029462046AC
:1044C800FFF766FF10B90020BDE8F88329462046AB
:1044D800FFF70DFF0546C8E7D8F8009000254E46BF
:1044E80016B1ADB14E4513D1B5FA85F5E3686D093E
:1044F800FB4003F0010383F001029542E3D11BB9AD
:10450800D8F80030002BDED1013708F10408B2E7F3
:1045180031462046FFF73CFF0028D4D0012231461F
:104528002046FFF7CCFE154431460322FFF7B6FEBE
:104538000646D5E7012229462046FFF7AFFEC20707
:1045480005D429462046FFF7D8FE0028BBD0002214
:1045580029462046FFF7A2FE281A8642B3D12946EB
:104568002046FFF7CAFE294602462046FFF7A7FE67
:104578002946FFF7BCFE2E46054688E758F8047F13
:104588000FB901368AE73D46012229462046FFF742
:1045980085FEC30797D429462046FFF790FE294693
:1045A8000322FFF77BFE87420546EDD1E9E70122AA
:1045B80029462046FFF772FE02402946204682F02F
:1045C8000102FFF77CFE294670E72DE9F04F00262F
:1045D80087B0149D0493129BCDE90201DB08904635
:1045E800002118222846119F0193344631F03FFEDE
:1045F800B1464FF0640A4FF0004B109B994502D129
:1046080007B0BDE8F08F0CBBFFF784FEB0FA80F26C
:104618000592FFF77FFE4FF0FF33059A043293406F
:1046280020EA0301029B4046059198472B680599AB
:1046380001332B60002841D1D5E904329B1942F19E
:104648000002C5E9043209F10109D6E7019BA3423A
:1046580009D90AFB06F3049AB3FBF2F3139A9A42B8
:1046680021D8FFF757FEFFF755FEB0FBF4F303FB25
:104678001400AA6807EBC003013257F830C0D3F81A
:1046880004E0AA6004F10052013A07EBC20292E882
:10469800030083E8030061464046039B013CA6EB08
:1046A8000E069847C8E7139ABBFBF2F253430593EB
:1046B800FFF730FE059B8342A6D3D4E76B680E4410
:1046C80001336B6007EBC40347F8340059600134C9
:1046D800B2E72DE9F04F89468168044685B008465F
:1046E800FFF748FE461C0A46334621466548FFF751
:1046F800A5FD6548FFF7A2FD00254FF0010B04F169
:104708000C0AB54236DBB9F1000F66D05F48FFF7F7
:1047180095FD0025DFF87891012229462046FFF70C
:10472800BDFDC30757D429462046FFF7E6FD00F133
:104738002D0629462046FFF7BCFD002207462946DC
:104748002046FFF7ABFD2946A5EB00082046FFF7FA
:10475800CEFD3B46CDE90080324629464846FFF764
:104768006DFDA368AB4238D029462046FFF7BFFD50
:104778000546D1E75AF8043F5BB300271946B84607
:10478800204603930291FFF794FD804538BF804689
:10479800029903222046FFF781FD039B01468342CD
:1047A80007F10107ECD1A3680BFA05F2B3F5004F46
:1047B80034BF04230823013A03F10801C3EBC803FB
:1047C800CDE9008302EBD1023B4629463148FFF789
:1047D80035FD013595E72A26ABE700212046FFF78E
:1047E80086FD0026D4F808800546B8F5004F2CBF92
:1047F8004FF008094FF00409374645451ED3B8F570
:10480800004F34BF042208224FF47A7102EBC80229
:10481800BB19D31A500801FB03000A21B0FBF2F0C0
:10482800B0FBF1F201FB12003946CDE90020324617
:104838001948FFF703FD05B0BDE8F08F29460122AE
:104848002046FFF72BFD10F0010F294620460BD01C
:10485800FFF72FFDA6EB090606EBC0062946204602
:10486800FFF745FD0546C8E7FFF747FD0028F5D1E6
:1048780029462046FFF71DFDA7EB090707EBC007F0
:10488800ECE700BF22F003004FF0030024F103001F
:1048980032F103000AF1030060F103000068FFF73A
:1048A80018BF00BF002203680BB9184670478B4237
:1048B80010D10B6842B942680360914200D143604D
:1048C800002301200B60704713604368994208BFBA
:1048D8004260F5E71A461B68E6E7038B13F0070307
:1048E80005D10368002B0CBF002003207047022B62
:1048F80005D1408BB0FA80F0400980007047012B49
:1049080005D10368002B0CBF00200520704700204C
:10491800704710B50C4600B111B96FF0150010BD05
:10492800081D2FF034FF0028F9D1A368032BF6D90E
:10493800F3E72DE9F0410D4607461946281D904634
:104948001E462FF038FF044638B133464246294602
:104958003846A446BDE8F0416047BDE8F0812DE93E
:10496800F047058B04462807904611D4022905F024
:10497800070540F0CD802046FFF7AFFF78B101383A
:10498800218B042811D8DFE800F0C3106D8595004D
:1049980001290CBF45F0100545F02005258388F353
:1049A8001188BFF36F8FBDE8F08701F0070AAA45A9
:1049B80000F0A6800027B9463E46A368002B00F009
:1049C800BD8041F00801218388F31188BFF36F8F00
:1049D800A168002900F0BB800D68002900F0B780AD
:1049E800334652462046D1F80480C047002D76D081
:1049F8002B6829461D46F0E701F007035A1F012AD4
:104A08001BD8002221F00701062B276889B2C4E9C8
:104A1800002209D13B4603E0628B013262831B68A6
:104A2800002BF9D141F0020120462183FFF755FF01
:104A380000287BD041F0200177E0042B0AD121F037
:104A4800070189B220462183FFF747FF10B141F0E3
:104A580020012183218B01F0070AAA4550D00027A5
:104A6800B946AAE7236921F0070141F00601062D9E
:104A7800D3F8009021832DD1B9F1000F40D041F037
:104A88000801218388F31188BFF36F8F20463A49C4
:104A9800C84729E021F00701236941F0040189B2E0
:104AA800042DD3F804902183E6D000274FF0040AA0
:104AB8003E4682E721F00701236941F0050189B2EA
:104AC800052DD3F808902183D6D000274FF0050A8A
:104AD8003E4672E700274FF0060A3E466DE72B4632
:104AE80087E7B9F1000FD1D14FF02003EFF3118818
:104AF80083F31288BFF36F8F238B23F0080323837C
:104B0800258BEA062ED525F01003238305F007052B
:104B18006669218B002EBFF66FAF00232768C4E9B2
:104B2800003321F0070141F001012183218B4FF06F
:104B3800000901F0070AAA457FF43FAF002F9BD078
:104B480041F00801218388F31188BFF36F8F002F8C
:104B5800C7D03D683946334652462046FFF7E9FE3E
:104B68002F46F4E7AB067FF51AAF25F02003238321
:104B780005F00705FFE600BF854B000010B44FF0B5
:104B88002004EFF3118284F31288BFF36F8F416121
:104B980010BC0121E3E638B50C46054658B151B1C1
:104BA8000B6843B14B6833B11C22002131F05FFB25
:104BB80000202C6138BD6FF01500FBE770B5054685
:104BC8000E46FFF7A6FE041E15DB4FF02003EFF399
:104BD800118283F31288BFF36F8F4FF6FF716B8BCF
:104BE8002C8B8B4204F0070407D182F31188BFF3A2
:104BF8006F8F6FF00A04204670BD022C0CD1013370
:104C08006B8382F31188BFF36F8F002322463146EE
:104C18002846FFF78EFEEEE7062C14D8DFE804F0EE
:104C280004131313041A0400002333606B683BB9A0
:104C3800C5E90066ACB902212846FFF790FEDAE71D
:104C48001E606E60F6E782F31188BFF36F8F6FF016
:104C58000404D0E782F31188BFF36F8F6FF08504E7
:104C6800C9E782F31188BFF36F8FC4E710B54FF01F
:104C78002003EFF3118283F31288BFF36F8F048B45
:104C880004F00704022C0AD0012C0CBF6FF00400BA
:104C98006FF0850082F31188BFF36F8F08E0438BB4
:104CA800013B9BB2438323B92146FFF758FE2046B8
:104CB80010BD2046EEE770B505460E46FFF729FE03
:104CC800041E1BDB2B699B6823B34FF02003EFF313
:104CD800118283F31288BFF36F8F2C8BE30712D5F1
:104CE800002333606B685BB9C5E9006604F007040C
:104CF800052C0AD002212846FFF731FE204670BD58
:104D08001E606E60F2E76FF0770482F31188BFF3DC
:104D18006F8FF3E76FF08504F0E738B5B0B1A9B14C
:104D28004FF02002EFF3118582F31288BFF36F8FE3
:104D3800048BFFF7B7FD30B104F0070085F3118845
:104D4800BFF36F8F38BD6FF07700F7E76FF015008E
:104D5800F8E7C8B1C1B14B68B3B14FF02003EFF326
:104D6800118283F31288BFF36F8F00230B60C3682F
:104D78003BB9C0E9021182F31188BFF36F8F00209D
:104D880070471960C160F6E76FF01500704710B5FD
:104D9800A8B1A1B14FF02003EFF3118483F3128877
:104DA800BFF36F8F0830FFF77DFD002814BF002088
:104DB8006FF0150084F31188BFF36F8F10BD6FF08B
:104DC8001500FBE74FF02002EFF3118382F31288FE
:104DD800BFF36F8F0B600068704738B504680D46E5
:104DE800002CBCBF00240460002B11469DF8102045
:104DF80010DB046862B101340222046085F3118873
:104E0800BFF36F8F11B10020FFF793FD204638BD27
:104E1800013CF1E71C460122EFE700BF2DE9F84FFE
:104E28009A46D37880466F2B0F461546A3F1410B5F
:104E380029D024D8582B0CBF10260A26DDF8289034
:104E480032460023404639462EF0AEF9092AD4B23C
:104E58001ED83034B045E4B277F1000709F8014DA7
:104E680001D3D14511D82B789B0605D5082E15D12D
:104E7800AB7843F00803AB704846BDE8F88F03F001
:104E8800F703702BD7E70826D8E780460F46D7E701
:104E9800BBF1190F94BF37345734DBE7102EEBD131
:104EA800AB7843F01003E6E72DE9F0410746884662
:104EB80015461E461446B44205D30EB1601B08E0E1
:104EC8002378002BFAD0414614F8010BB847002884
:104ED800F1DABDE8F0812DE9F04F81468B4617469F
:104EE8001C46002595B0387808B9284656E37B1C3F
:104EF8002528039306D05946C8470028C0F24E8398
:104F08000135FBE1182200210EA831F0B0F97B78B9
:104F1800252B7DD0002398469E469C461E46781C2D
:104F2800014610F8012B2B2A00F0A18000F298808E
:104F3800202A00F09F80232A00F09F802BB19DF843
:104F4800403043F040038DF84030B8F1000F05D0F1
:104F58009DF8403043F020038DF84030BEF1000F3B
:104F680005D09DF8403043F010038DF84030BCF177
:104F7800000F05D09DF8403043F008038DF840300D
:104F88002EB19DF8403043F004038DF840309DF871
:104F9800403003F04400442803D16FF386138DF8A2
:104FA80040309DF840302A2A43F080038DF8403085
:104FB8007FD19DF841204B1C42F001028DF8412021
:104FC8001A782E2A0CBF012100219DF8412061F397
:104FD80041028DF8412078D15A782A2A6ED00022D1
:104FE8004FF00A0C0133194611F8010BA0F13006F5
:104FF800092E40F295809DF840101292C1F34000AE
:1050080040EAD2700A4660F341028DF840205CE025
:10501800BA1C03928DF843309DF84130DA0740F10D
:105028002E8154F8048BB8F1000F07DA9DF8402060
:10503800C8F1000842F004028DF840205E0740F1F4
:10504800278154F804ABBAF1000F80F226819DF84D
:1050580041306FF341038DF841304FF0FF3A1CE1C6
:105068002D2A0DD0302A7FF469AF012358E74FF07D
:10507800010C55E74FF0010E52E74FF001084FE7DA
:1050880001264DE703460EFB0262303A184610F837
:10509800016BA6F1300CBCF1090FF3D999428FD0FE
:1050A8009DF840101192D20F62F341018DF8401023
:1050B80086E70B4600224FF00A0EE7E79DF84120ED
:1050C800023342F004028DF841201A786C2A47D046
:1050D8002BD8682A31D06A2A4BD04C2A51D01A468C
:1050E80012F8013B782B03928DF843309DF841204C
:1050F80000F2BE806D2B51D8692B00F2B980572B76
:1051080067D8412B03D0453B022B00F2B180042223
:105118009DF8423062F302038DF84230012373E0B8
:105128000CFB02020B46303A5DE7742A25D07A2A36
:10513800D5D106219DF841200CE05A78682A9DF8BF
:10514800412006D1012161F3C6028DF841200233C6
:10515800C5E7022161F3C6028DF841200133BEE79D
:105168005A786C2A9DF8412001D10421EBE70321EC
:10517800F0E705219DF84120ECE707219DF8412043
:10518800E8E7BDF8402022F4F04222F0020242F49F
:10519800804242F00202ADF84020DFE76E3BD9B210
:1051A80001238B4040F282410B4237D113F0240F88
:1051B80051D1D8075CD503219DF8423061F3020331
:1051C8008DF8423002F07803A3F140014B424B4185
:1051D8001AE00120A3F15801C9B200FA01F111F453
:1051E800624F94D140F6010631421DD111F4043FBB
:1051F8003ED09DF8423060F3020302F07802402A64
:105208008DF8423034D000239DF84020C2F340018D
:105218000B4363F341028DF84020FDE602219DF81F
:10522800423061F30203E8E702209DF8421002F0E1
:10523800780260F30201402A8DF8421002BF9DF8FF
:10524800401041F001018DF84010632BDBD1131E93
:1052580018BF0123D8E703219DF8423012F0780FD8
:1052680061F302038DF8423014BF01230023CBE71A
:105278009DF8403043F001038DF84030C3E79DF9B5
:105288004020002AACBF4FF0FF38DDF84480D5E657
:1052980098077FF5E2AEDDF848A00023CDE9113389
:1052A8009DF842309DF8411003F00703012BC1F32C
:1052B800C30133D1CB1E042B04D8DFE803F0214609
:1052C80046212100236801294FEAE372CDE90E3215
:1052D8001CD19DF93830DA17CDE90E3204349DF827
:1052E800403013F0030650D03A4659464846039BCF
:1052F800FFF7DAFD0028C0F251810544039FF2E56B
:1053080054F8043BDA17CDE90E32E8E70229E5D173
:105318001AB243F3C033CDE90E23DFE7022B24D1C1
:10532800CB1E042B04D8DFE803F01810101818005F
:1053380001294FF0000254F8043B14D00229CDE9AA
:105348000E32CCD19BB20E93C9E7073424F0070480
:10535800F4E80223CDE90E23C1E754F8043B0E9389
:1053680000230F93BBE7DBB2CDE7042B08D107344A
:1053780024F00704D4E900230834CDE90E23AEE76E
:10538800032BACD154F8043BDDE79DF843007828A3
:10539800B4D862281CD825283FF4ADAD5828ADD123
:1053A800DDE90E010DF13603009310AA08ABFFF7F3
:1053B80035FDBAF1000F074680F29880002F9DD086
:1053C8000DF13603D81B002E00F0BF800130BCE081
:1053D8006338152892D801A252F820F0B954000079
:1053E800CB5400000553000005530000055300008E
:1053F80005530000CB54000005530000055300007E
:10540800055300000553000057550000EF540000F5
:105418001555000005530000055300003D540000D9
:1054280005530000EF540000055300000553000029
:10543800EF540000BAF1000F0E9F35DB5146384695
:1054480030F09CFF07EB000A002F3FF457AF00260F
:105458009DF8423013F01002059200F0928002305D
:105468005B06119A48BF129B104448BFC018B8F198
:10547800000F049240F39F809DF84020A8EB00089D
:10548800C2F380035007069300F19580510640F15E
:1054980088803EB159463046C84700287EDB069BC7
:1054A80001351E4630227DE0384630F045FEC9E71A
:1054B8000E9B002601208DF8203008AF0DF1210A3F
:1054C800C6E719075ABFC3F300135E012B26DDE9AF
:1054D8000E23002BBFF664AF524263EB43032D2625
:1054E800CDE90E235CE700265AE700269DF8402008
:1054F8000DF13603DB1B6FF386129A458DF84020B9
:105508007FF65CAFAAEB0303119357E70E9890B3AD
:105518000DF136030093002108AB10AAFFF77EFCBB
:10552800BDF84230BAF1000F03F0EF0343F4F04343
:1055380043F010030746ADF84230D6DA00283FF4AE
:10554800DDAE00260DF13603181A9A4680E70E9B49
:1055580007293FF6D3AEDFE801F00C04060C080873
:105568000C0C1D70CAE61D80C8E6EA17C3E9005294
:10557800C4E61D60C2E62F4F064607F1050A05205E
:1055880066E71A0748BF01306AE710460793069294
:105598005946C847DDE90623002804DA15B0BDE8F6
:1055A800F08F202243461946002903F1FF33ECDC33
:1055B800454498466D1A2EB159463046C8470028CA
:1055C800ECDB01359DF84230DA0601D41B0705D51E
:1055D80059463020C8470028E0DB0135059B33B128
:1055E80059469DF84300C8470028D7DB0135049E7B
:1055F8002E4405E059463020C8470028CEDB013547
:10560800731B002BF6DC53463A4659464846FFF7CB
:105618004BFC0028C2DB0544A844A8EB0503002B7B
:105628007FF76CAE59462020C8470028B6DB013505
:10563800F3E700BFA8F10300A0F13003092B07D955
:1056480040F02000613805288CBF002001207047F9
:1056580001207047D0E902239A4235BF531C013319
:10566800836083602CBF00201078704770B50146B6
:10567800012584682A4E44600846FFF7EBFF30B9DD
:1056880021230B748B684C618B614B6070BD5C2867
:1056980036D10846FFF7DEFF752805DC5B280ADCF3
:1056A8002228E9D02F28E7D021230B748B6800200B
:1056B8004C618B61E9E7A0F15C0305FA03F333421F
:1056C800DAD17528F0D10846FFF7C4FFFFF7B4FF19
:1056D8000028E9D00846FFF7BDFFFFF7ADFF002817
:1056E800E2D00846FFF7B6FFFFF7A6FF0028DBD099
:1056F8000846FFF7AFFFFFF79FFF0028BCD1D3E7AD
:105708002228B9D18B680874013BC1E905438B6035
:105718004B600846FFF79EFF8B680248B5E700BF5D
:1057280041044401D157000010B50446013911F86D
:10573800010F00B910BD2046FFF78CFF0B78984287
:10574800F5D06FF01500F5E738B583680446013BDE
:105758008360FFF77FFF662805460ED074280ED1B8
:105768000A492046FFF7E0FF48B9636808486361C3
:10577800A3682574A361636038BD0649F1E7212356
:105788002374636800206361A368F3E7BDF1030035
:10579800D1570000C2F10300014608B50846FFF7DB
:1057A80059FFA0F13003092BF8D92E28F6D0302262
:1057B8008B680A744A68013BC1E9052301488B607C
:1057C8004B6008BDD1570000014610B50846FFF7E9
:1057D80041FF2D28044639D00DDC222841D02C2841
:1057E8002CD018B3202803D0A4F10903042B0ED819
:1057F8008B684B60EAE76E2835D00CDC662834D01D
:1058080005DC5B281AD05D2818D03A2816D0303C21
:10581800092C24D907E0742827D07328F7DD7B28C2
:105828000CD07D280AD021230B7400E008744B6843
:1058380000204B618B688B614B6006E04B680C481D
:105848004B618B680C748B614B6010BD0846FFF789
:1058580001FF8B683038013B09288B60D7D8054891
:10586800F3E70548F1E70548EFE70548EDE700BF2E
:10587800D1570000A157000075560000D959000003
:10588800515700007B2818D8652809D8332812D822
:105898002F2815D822280CBF00206FF0150070475C
:1058A800084B6638C0B2C34013F0010F14BF002084
:1058B8006FF0150070475B28EDE76FF01500704733
:1058C8000020704701402000F8B5437904465B0882
:1058D8005B2B2AD012D8302B3BD006D8222B08BFFE
:1058E800042018BF6FF0150007E04F3303F07F0363
:1058F800022B8CBF6FF015000820F8BD742B2AD03E
:105908007B2B03D0662B08BF0120EAE700252E4633
:10591800C768AF4215D10120237903F003039840EB
:1059280001383044D8409840E7E7D0E90205FFF74E
:10593800CBFFA388684303F4FE73002BDDD004304B
:10594800DBE7A06800EB0510FFF7BEFF0135064452
:10595800DFE70420D1E70120CFE70D280BD807287F
:1059680015D90838052812D8DFE800F0130F0B11F5
:10597800030D6620704722280CD05C2818BF002031
:1059880070476E207047722070477420704700205F
:10599800704762207047136800200B4413607047FB
:1059A80070B5D2E901639B1B8B420C4615460CD996
:1059B80013680A460146981930F04EFC00206B68BF
:1059C8001C442B686C60185570BD6FF00B00FBE72A
:1059D8000A4910B50446FFF7A7FED4E901230028B9
:1059E800B7BF21216E2121746261A4BF2174626155
:1059F800A3616360B4BF0020014810BDAEF103008D
:105A0800D15700002DE9F3410C4606460121134801
:105A18001546A04700281ADB5C273668B04616F8FA
:105A2800010B38B92A46012123460C4802B0BDE8CB
:105A3800F0411847FFF791FF60B12A4602218DF81F
:105A480005008DF8047001A8A0470028E6D002B030
:105A5800BDE8F0812A4601214046F5E7B2F103008E
:105A680038B504460D462368207C0BB938B90DE0DB
:105A78005F2803D1204698472060F4E75F2304F1AC
:105A8800100207CA85E807000120237438BDF0B565
:105A9800164635781C464B7985B0742D0A9A4FEA1C
:105AA800530301D0662D0BD1742B01D0662B23D163
:105AB800A5F174035D425D4125700020014631E087
:105AC800302D07D1312B2FD172682260B3689B1A11
